:020000040800F2
:100000008007002091010008D50600083506000889
:10001000D10600083F040008D913000800000000C2
:10002000000000000000000000000000750C000847
:100030004304000800000000350A0008890E00088B
:10004000AB010008AB010008AB010008AB010008E0
:10005000AB010008AB010008AB010008AB010008D0
:10006000AB010008AB010008AB010008AB010008C0
:10007000AB010008AB010008AB010008AB010008B0
:10008000AB010008AB010008AB010008AB010008A0
:10009000AB010008AB010008AB010008AB01000890
:1000A000AB010008AB010008AB010008AB01000880
:1000B000AB010008ED0E0008AB010008AB01000821
:1000C000AB010008AB010008AB010008AB01000860
:1000D000AB010008AB0100086D100008AB0100087F
:1000E000AB010008AB010008AB01000800F002F80A
:1000F00000F03FF80AA090E8000C82448344AAF183
:100100000107DA4501D100F034F8AFF2090EBAE880
:100110000F0013F0010F18BFFB1A43F0010318473B
:10012000B81B0000D81B0000103A24BF78C878C163
:10013000FAD8520724BF30C830C144BF04680C60ED
:10014000704700000023002400250026103A28BF35
:1001500078C1FBD8520728BF30C148BF0B60704739
:10016000642900F07D80002070471FB51FBD10B5C9
:1001700010BD00F02AF91146FFF7F7FF01F076F9FC
:1001800000F048F903B4FFF7F2FF03BC00F050F9A8
:100190000948804709480047FEE7FEE7FEE7FEE71B
:1001A000FEE7FEE7FEE7FEE7FEE7FEE70448054957
:1001B000054A064B704700008D0E0008ED00000850
:1001C00080010020800700208003002080030020A1
:1001D0000FB41CB5074B06AA7B44694600900598EE
:1001E00000F0DBF80020694600F0EAF81CBC5DF87E
:1001F00014FB0000E50100002DE9F0410E46044625
:10020000002020622046E168884730B3252805D0C9
:10021000D4E901219047206A401CF2E7E1682046BA
:1002200000278847050018D0A5F14100192802D8F9
:1002300020354FF400673246294620462760FFF7F5
:100240008FFF40B1012804D0F61D26F007060836BE
:10025000D8E7361DD6E72846DAE7206ABDE8F08100
:100260002DE9F0410646002410687529314616A58F
:1002700010D0AFF30080002802DA404213A507E057
:1002800031688A0701D512A502E0490704D511A5F6
:10029000012401E0AFF3008000210A2206F12407C7
:1002A00009E0B0FBF2FCB0FBF2F302FB1C003030C3
:1002B00078541846491C0028F3D123462A46304674
:1002C000BDE8F04100F00BB8000000002D00000078
:1002D0002B000000200000007047704770472DE998
:1002E000F0470D4699469246044600F124080168FD
:1002F000880604D5E06921F01001216000E00120AA
:10030000A84201DD471B00E00027A1697A1902EB32
:100310000900081AA0612078C00602D42046AFF375
:100320000080002608E0D4E901211AF80600904771
:10033000206A401C761C20624E45F4DB2078C00603
:100340000AD52046AFF3008006E0D4E90121302031
:100350009047206A401C2062381EA7F10107F4DC98
:1003600007E0D4E9012118F805009047206A401CF5
:100370002062281EA5F10105F3DC2046AFF30080C2
:100380002078000602D50220BDE8F0870120FBE7B7
:1003900001694A1C02610878704700B58FB0CDE949
:1003A00001310021059105497944CDE90310114639
:1003B0006846FFF721FF0FB000BD0000E5FFFFFF1B
:1003C0000A6802F8010B0A607047754600F02CF8C5
:1003D000AE4605006946534620F00700854618B032
:1003E00020B5FFF7E3FEBDE820404FF000064FF0D8
:1003F00000074FF000084FF0000B21F00701AC465A
:10040000ACE8C009ACE8C009ACE8C009ACE8C00978
:100410008D46704710B50446AFF300802046BDE816
:100420001040FFF7AFBE00000048704720010020D9
:1004300001491820ABBEFEE726000200704700BF4E
:10044000FEE770472DE9F041024600250026002016
:1004500000230024002791F803C00CF00F0591F849
:1004600003C00CF0100CBCF1000F03D091F802C0D7
:100470004CEA050591F800C0BCF1000F31D01468BA
:1004800000202BE04FF0010C0CFA00F3B1F800C093
:100490000CEA03069E4220D183004FF00F0C0CFAA9
:1004A00003F7BC4305FA03FC4CEA040491F803C0CB
:1004B000BCF1280F06D14FF0010C0CFA00FCC2F879
:1004C00014C00AE091F803C0BCF1480F05D14FF009
:1004D000010C0CFA00FCC2F810C0401C0828D1D353
:1004E0001460B1F800C0BCF1FF0F34DD5468002087
:1004F0002EE000F1080C4FF0010808FA0CF3B1F8F7
:1005000000C00CEA03069E4221D183004FF00F0C7D
:100510000CFA03F7BC4305FA03FC4CEA040491F817
:1005200003C0BCF1280F05D100F1080C08FA0CF843
:10053000C2F8148091F803C0BCF1480F07D100F154
:10054000080C4FF0010808FA0CF8C2F81080401CA3
:100550000828CED35460BDE8F0810000F0B50A460B
:10056000002300240021002500F00046B6F1004FD2
:1005700002D11D4EF16901E01B4E7168C0F30345C5
:1005800083B200F44016B6F5401F08D121F0706127
:10059000154E766826F07066134F7E6012E000F408
:1005A0008016B6F5801F06D1032606FA05F4A1438E
:1005B00041F0706106E0460D360103FA06F6B143DC
:1005C00041F0706122B1460D360103FA06F631435F
:1005D00000F00046B6F1004F02D1034EF16101E098
:1005E000014E7160F0BD00000000014001617047E4
:1005F0000AB1016100E041617047000070B5024638
:100600000C46FF25FF2309E012F8010B80EA0501E3
:100610000648405C80EA03050548435C201EA4F1BF
:100620000106F4B2F0D143EA052070BDE8140008D9
:10063000E815000800BFFEE708B50121082000F01A
:100640000BFA3020ADF8000048208DF80300694611
:100650000148FFF7F7FE08BD000C014008B5012175
:10066000092000F0F9F901210A48FFF777FF082077
:10067000ADF8000010208DF8030003208DF8020073
:1006800069460548FFF7DEFE08210348FFF7AEFF85
:1006900008BD000000023000000C01400949098833
:1006A000491C084A118011460988814208D100215D
:1006B00011800549096881F00101044AC2F88C11D2
:1006C00070470000140000208C81214200802142EC
:1006D00000BFFEE77047000070B5002100230F2225
:1006E000C47804B3154C246804F4E064C4F5E064F1
:1006F000210AC1F10403CA40447804FA03F1847862
:100700001440214309010E4C0678A155047804F0E9
:100710001F050124AC4005786D11AD0005F1E02501
:10072000C5F8004109E0047804F01F050124AC403D
:10073000044D0678761145F8264070BD0CED00E0BA
:1007400000E400E080E100E002490143024A116058
:10075000704700000000FA050CED00E070B50024C1
:100760000EE00021204600F0E6F8002504E000201D
:1007700000F050F9681CC5B2802DF8DB601CC4B2D3
:10078000082CEEDB70BD000008B50121082000F048
:1007900063F914208DF8030003208DF802004FF454
:1007A0008070ADF8000069460A48FFF74BFE4FF431
:1007B0000070ADF8000069460648FFF743FE0122CD
:1007C00011020448FFF714FF012251020148FFF70C
:1007D0000FFF08BD000C014070B50546002415E070
:1007E0008020204100EA05024FF400710E48FFF717
:1007F000FFFE012211020C48FFF7FAFE00224FF41F
:1008000080710948FFF7F4FE601CC4B2082CE7DBD6
:10081000012211020448FFF7EBFE00224FF4807121
:100820000148FFF7E5FE70BD000C014010B5012244
:1008300051020A48FFF7DCFE012211020748FFF7C8
:10084000D7FE00224FF400710448FFF7D1FE0022CA
:100850004FF480710148FFF7CBFE10BD000C014042
:1008600010B500224FF400710648FFF7C1FE0122C7
:1008700011020448FFF7BCFE012251020148FFF7B4
:10088000B7FE10BD000C014070B5002406E0002545
:1008900000E06D1CB5F57A7FFBD3641CB4F57A7F5C
:1008A000F5D3FFF771FFAE2000F0A4F8D52000F0DB
:1008B000A1F8802000F09EF8A82000F09BF83F20CF
:1008C00000F098F8D32000F095F8002000F092F89E
:1008D000402000F08FF8A12000F08CF8C82000F034
:1008E00089F8DA2000F086F8122000F083F88120E1
:1008F00000F080F8CF2000F07DF8D92000F07AF8E1
:10090000F12000F077F8DB2000F074F8302000F0E0
:1009100071F8A42000F06EF8A62000F06BF88D208E
:1009200000F068F8142000F065F8AF2000F062F8DD
:10093000FFF714FF70BD70B505460C4645F0B000DA
:1009400000F058F8102141EA141000F053F804F0B8
:100950000F0000F04FF870BD2DE9F04105460E463E
:100960001746721ED206110E6A1E5206100EFFF7AF
:10097000E2FF002409E0A7F12001134A02EB011174
:10098000085D00F047F8601CC4B2082CF3DB721E4F
:10099000D206110E6A1E012303EB4202D0B2FFF70A
:1009A000CAFF00240BE0A7F12001074A02EB011265
:1009B00004F10801505C00F02DF8601CC4B2082C52
:1009C000F1DBBDE8F0810000E81600082DE9F041F8
:1009D00007460E461546002407E02A5D3019C1B2CD
:1009E0003846FFF7B9FF601CC4B2285D0028F4D177
:1009F000BDE8F08110B50446FFF718FF7820FFF737
:100A0000EBFE0020FFF7E8FE2046FFF7E5FEFFF7CC
:100A100027FF10BD10B50446FFF708FF7820FFF749
:100A2000DBFE4020FFF7D8FE2046FFF7D5FEFFF79C
:100A300017FF10BD7047000029B1064AD269024372
:100A4000044BDA6104E0034AD2698243014BDA6164
:100A5000704700000010024029B1064A9269024323
:100A6000044B9A6104E0034A92698243014B9A6104
:100A7000704700000010024030B500210022002421
:100A800000232D4D6D6805F00C0121B1042905D01E
:100A9000082923D105E0294D056022E0274D056096
:100AA0001FE0254D6D6805F47012234D6D6805F447
:100AB0008034022505EB92421CB9214D5543056057
:100AC0000BE01D4D6D6805F400351DB11C4D5543FF
:100AD000056002E0194D5543056002E0174D0560C1
:100AE00000BF00BF144D6D6805F0F0010909154DF8
:100AF0006B5C0568DD4045600F4D6D6805F4E06195
:100B0000090A104D6B5C4568DD4085600A4D6D68D3
:100B100005F46051C90A0B4D6B5C4568DD40C5604A
:100B2000054D6D6805F44041890B074D6B5CC56848
:100B3000B5FBF3F5056130BD0010024000127A00EC
:100B400000093D00360000204600002010B586B0A8
:100B5000044601210420FFF77FFF01214804FFF72D
:100B60006BFF01210846FFF777FF0220ADF8140064
:100B700010208DF8170003208DF8160005A92348D2
:100B8000FFF760FC0420ADF8140018208DF8170062
:100B900005A91E48FFF756FC0820ADF814000420F4
:100BA0008DF8170005A91948FFF74CFC26208DF891
:100BB000000003208DF8010002208DF802000120C2
:100BC0008DF803006846FFF787FD01940020ADF81B
:100BD0000800ADF80A00ADF80C00ADF810000C20CC
:100BE000ADF80E0001A90A4800F0EEFA012240F229
:100BF0002551074800F0C3FA0121054800F07CFAAE
:100C000000200449086006B010BD00000008014043
:100C100000440040840121422DE9FC4706460F466E
:100C200014461D468DF800608DF8017020128DF875
:100C30000200E0B28DF8030028128DF80400E8B23B
:100C40008DF8050006216846FFF7D8FC8046C8F3FA
:100C5000072A08F0FF098DF806A08DF807900821F3
:100C6000684600F009F8012001490870BDE8FC87DA
:100C70001A0000207047000070B505460E4601209E
:100C80000E49086000F0CCFB00240CE000BF4021BE
:100C90000B4800F03DFA0028F9D0295D084800F023
:100CA00004FB601CC4B2B442F0DB012000F0B8FBCE
:100CB0000020044908700149086070BD8401214288
:100CC000004400401800002000B585B00121042038
:100CD000FFF7C2FE01218803FFF7BEFE18208DF842
:100CE00013004FF40070ADF8100003208DF81200CF
:100CF00004A90E48FFF7A6FB4FF416500090002001
:100D0000ADF80400ADF80600ADF80800ADF80C0031
:100D10000C20ADF80A006946054800F055FA01219B
:100D2000034800F0E9F905B000BD000000080140EB
:100D30000038014010B504462146074800F0B5FAD6
:100D400000BF8021044800F0E3F90028F9D0022018
:100D500000F066FB10BD00000038014070B504468D
:100D6000002504E0605DFFF7E5FF681CC5B2605D2B
:100D70000028F7D170BD10B500F002F810BD0000DA
:100D80000CB50020019000903348006840F480309A
:100D90003149086000BF3048006800F4003000901E
:100DA0000198401C0190009818B90198B0F5A06F07
:100DB000F1D12948006800F4003010B10120009002
:100DC00001E0002000900098012843D123480068EA
:100DD00040F01000214908600846006820F0030038
:100DE00008600846006840F0020008601A48406841
:100DF000194948600846406848600846406840F421
:100E0000806048600846406820F47C1048600846CE
:100E1000406840F4E81048600846006840F0807080
:100E2000086000BF0C48006800F000700028F9D08E
:100E30000948406820F003000749486008464068B8
:100E400040F00200486000BF0348406800F00C001A
:100E50000828F9D10CBD000000100240002002401B
:100E6000042808D14FF0E021096941F004014FF056
:100E7000E022116107E04FF0E021096921F004014F
:100E80004FF0E022116170477047000010B5134821
:100E9000006840F0010011490860084640681049A8
:100EA00008400E494860084600680E4908400B4952
:100EB00008600846006820F4802008600846406802
:100EC00020F4FE0048604FF41F008860FFF753FFD6
:100ED0004FF000600449086010BD0000001002409F
:100EE0000000FFF8FFFFF6FE08ED00E010B501215D
:100EF000074800F04EF850B1012000F03DFA4FF4E1
:100F0000FA70FFF7CBFB0121014800F033F810BD68
:100F1000000400407FB505460C4601210220FFF782
:100F20008BFDA8B2ADF80800A0B2ADF80400002017
:100F3000ADF80A00ADF8060001A90D4800F044F82C
:100F4000012211460A4800F035F81D208DF80000F6
:100F500003208DF8010001208DF802008DF80300B8
:100F60006846FFF7B9FB0121014800F006F87FBD94
:100F700000040040CA430282704721B1028842F057
:100F80000102028004E002884FF6FE731A400280DC
:100F9000704730B50246002000230024158A05EA78
:100FA0000103958905EA010413B10CB1012000E0A9
:100FB000002030BD1AB183890B43838102E083890D
:100FC0008B43838170470000002202881D4B9842AA
:100FD0000ED01D4B98420BD0B0F1804F08D01B4B68
:100FE000984205D01A4B984202D01A4B984204D12D
:100FF0004FF68F731A404B881A43174B984207D00D
:10100000164B984204D04FF6FF431A40CB881A4340
:1010100002808B8883850B8803850A4B98420BD00E
:10102000094B984208D00E4B984205D00D4B984280
:1010300002D00D4B984201D10B7A038601238382A3
:1010400070470000002C01400034014000040040C3
:1010500000080040000C0040001000400014004058
:1010600000400140004401400048014010B540F2FA
:1010700025511A4800F059F878B3184800F010F9D3
:101080001749086017480078072826DA0020164913
:101090000880134800781549124A1278885411487C
:1010A0000078401C0F49087008460078072814D1C2
:1010B00000200F4908700CE00C480D490978405C8D
:1010C0000C490B4A1278885409480078401C08499A
:1010D0000870074800780728EEDB10BD0044004088
:1010E00020000020180000202400002060000020C4
:1010F000260000202700002021B1828942F40052FE
:10110000828104E082894DF6FF731A408281704724
:1011100002460020B1F5007F00D100BF13880B40CC
:101120000BB1012000E00020704770B5024600249A
:1011300000230025002040F66A16B14200D100BF0E
:10114000C1F3421501F01F03012606FA03F3012D36
:1011500002D19689334006E0022D02D1168A33402F
:1011600001E0968A33400C12012606FA04F4168830
:10117000344013B10CB1012000E0002070BDF0B587
:101180000346002400260025002040F66A17B942D5
:1011900000D100BF1846C1F3421401F01F06012719
:1011A00007FA06F5012C01D10C3004E0022C01D124
:1011B000103000E014301AB107682F43076002E0D6
:1011C0000768AF430760F0BD2DE9F04786B00546DC
:1011D0000E460024A24600BFA1460027B08900B1F8
:1011E00000BF2F462C8A4CF6FF700440F088044361
:1011F0002C82AC894EF6F3100440B0883189084344
:10120000718908430443AC81AC8A4FF6FF40044027
:10121000B0890443AC8201A8FFF72EFC1F48874227
:1012200002D1DDF810A001E0DDF80CA0A88900F4DF
:10123000004040B10AEBCA0000EB0A1031684900D7
:10124000B0FBF1F807E00AEBCA0000EB0A103168C6
:101250008900B0FBF1F86420B8FBF0F0040120092C
:10126000642101FB1089A88900F4004040B13220BC
:1012700000EBC900B0FBF1F000F00700044308E008
:10128000322000EB09106421B0FBF1F000F00F00F8
:1012900004432C8106B0BDE8F0870000003801400F
:1012A00001468888C0F308007047C1F308028280B5
:1012B0007047000070B51D480078002835D0002028
:1012C0001A49087040211A4800F03AF81949087084
:1012D00008460078801EC1B21548FFF78FF9044612
:1012E000C4F30725E6B213480078801E1049085C55
:1012F000A8421AD10F480078401E085CB04214D1B1
:101300000846407803280DD10846807850B9084631
:10131000C078052806DC08460179C07801EB00207A
:101320000549088000200549087070BD190000209B
:10133000E0000020300000201C0000201A000020E7
:1013400010B503460A480078814201DD084801785B
:10135000002205E00748805C18705B1C501CC2B27C
:101360008A42F7DB0020024C2070084610BD0000C6
:1013700018000020600000201349097800291EDDB4
:1013800012490978104A1278914207D00E4909781B
:101390000E4A117000210E4A117013E00C490978B1
:1013A00003290FDA0A4909780144094A11701146E4
:1013B0000978032906DB0121064A117002E00021A9
:1013C000024A117070470000180000202E00002013
:1013D0002F0000201900002000BFFEE710B56FF0BD
:1013E0000400FFF73DFD0A4800680A49B0FBF1F030
:1013F000094908700846007800EB4001C1EBC010B5
:101400004FF6FF7101EAC0000449088010BD0000DA
:101410000000002000127A0032000020340000207A
:101420000146114A12884A434FF0E0235A610022D4
:101430009A611A46126942F001021A6100BF4FF028
:10144000E022106900F001021AB100F48032002A93
:10145000F5D04FF0E022126922F001024FF0E023B4
:101460001A6100229A61704734000020FFF7B6FF2E
:101470004FF44070FFF768F9FFF7F0F8FFF7DCF87A
:101480004FF41650FFF762FB472140F2E730FFF7B9
:1014900041FDFFF7F9F9FFF717FC1AE0FFF70AFF24
:1014A00001234FF4D37204211846FFF7B5FB094816
:1014B0000379C27808A10B48FEF78AFE094A012188
:1014C0000220FFF783FA0748FFF748FC6420FFF784
:1014D000A7FFE3E7270000202564256420202020C3
:1014E000000000004C00002000C1814001C080418C
:1014F00001C0804100C1814001C0804100C18140E4
:1015000000C1814001C0804101C0804100C18140D3
:1015100000C1814001C0804100C1814001C08041C3
:1015200001C0804100C1814001C0804100C18140B3
:1015300000C1814001C0804100C1814001C08041A3
:1015400001C0804100C1814000C1814001C0804193
:1015500001C0804100C1814001C0804100C1814083
:1015600000C1814001C0804101C0804100C1814073
:1015700000C1814001C0804100C1814001C0804163
:1015800001C0804100C1814000C1814001C0804153
:1015900001C0804100C1814001C0804100C1814043
:1015A00000C1814001C0804100C1814001C0804133
:1015B00001C0804100C1814001C0804100C1814023
:1015C00000C1814001C0804101C0804100C1814013
:1015D00000C1814001C0804100C1814001C0804103
:1015E00001C0804100C1814000C0C101C30302C2EB
:1015F000C60607C705C5C404CC0C0DCD0FCFCE0E53
:101600000ACACB0BC90908C8D81819D91BDBDA1AC2
:101610001EDEDF1FDD1D1CDC14D4D515D71716D632
:10162000D21213D311D1D010F03031F133F3F232A2
:1016300036F6F737F53534F43CFCFD3DFF3F3EFE12
:10164000FA3A3BFB39F9F83828E8E929EB2B2AEA82
:10165000EE2E2FEF2DEDEC2CE42425E527E7E626F2
:1016600022E2E323E12120E0A06061A163A3A26262
:1016700066A6A767A56564A46CACAD6DAF6F6EAED2
:10168000AA6A6BAB69A9A86878B8B979BB7B7ABA42
:10169000BE7E7FBF7DBDBC7CB47475B577B7B676B2
:1016A00072B2B373B17170B0509091519353529222
:1016B00096565797559594549C5C5D9D5F9F9E5E92
:1016C0005A9A9B5B99595898884849894B8B8A4A02
:1016D0004E8E8F4F8D4D4C8C448485458747468672
:1016E00082424383418180400000000000000000EE
:1016F0000000000000000000000000F800000000F2
:10170000000000333000000000100C06100C060032
:10171000000000000000000040C07840C078400099
:10172000043F04043F040400007088FC08300000FB
:10173000001820FF211E0000F008F000E018000053
:1017400000211C031E211E0000F00888700000000C
:101750001E2123241927211010160E00000000005E
:101760000000000000000000000000E0180402007B
:10177000000000071820400000020418E0000000EC
:101780000040201807000000404080F080404000EA
:101790000202010F01020200000000F00000000040
:1017A0000101011F01010100000000000000000014
:1017B00080B0700000000000000000000000000089
:1017C0000001010101010101000000000000000012
:1017D00000303000000000000000000080601804AD
:1017E000006018060100000000E010080810E0008A
:1017F000000F102020100F00001010F80000000053
:101800000020203F20200000007008080888700099
:101810000030282422213000003008888848300019
:101820000018202020110E000000C02010F8000039
:1018300000070424243F240000F8088888080800D2
:101840000019212020110E0000E0108888180000E7
:10185000000F112020110E0000380808C8380800B9
:101860000000003F00000000007088080888700039
:10187000001C222121221C0000E010080810E000BA
:101880000000312222110F00000000C0C000000043
:101890000000003030000000000000800000000068
:1018A0000000806000000000000080402010080060
:1018B0000001020408102000404040404040400029
:1018C0000404040404040400000810204080000004
:1018D0000020100804020100007048080808F00009
:1018E0000000003036010000C030C828E810E000D9
:1018F0000718272423140B000000C038E000000064
:10190000203C23020227382008F8888888700000CD
:10191000203F202020110E00C030080808083800A1
:10192000071820202010080008F808080810E00018
:10193000203F202020100F0008F88888E8081000B9
:10194000203F20202320180008F88888E80810008D
:10195000203F200003000000C030080808380000C5
:1019600007182020221E020008F808000008F808C6
:10197000203F210101213F20000808F8080800004D
:101980000020203F2020000000000808F808080080
:10199000C08080807F00000008F888C028180800F8
:1019A000203F20012638200008F808000000000031
:1019B000203F20202020300008F8F800F8F8080028
:1019C000203F003F003F200008F830C00008F80822
:1019D000203F200007183F00E01008080810E00032
:1019E0000F10202020100F0008F808080808F00049
:1019F000203F210101010000E01008080810E0006C
:101A00000F18242438504F0008F888888888700000
:101A1000203F2000030C30200070880808083800A0
:101A20000038202121221C00180808F80808180096
:101A30000000203F2000000008F808000008F80817
:101A4000001F202020201F000878880000C83808C8
:101A5000000007380E010000F80800F80008F80040
:101A6000033C0700073C03000818688080681808DA
:101A700020302C03032C30200838C800C838080058
:101A80000000203F2000000010080808C8380800A7
:101A90002038262120201800000000FE020202004B
:101AA0000000007F40404000000C30C000000000FB
:101AB000000000010638C00000020202FE00000023
:101AC000004040407F0000000000040202020400C9
:101AD0000000000000000000000000000000000006
:101AE00080808080808080800002020400000000EE
:101AF00000000000000000000000808080800000E6
:101B00000019242222223F2008F8008080000000D3
:101B1000003F112020110E00000000808080000096
:101B2000000E112020201100000000808088F800A5
:101B3000000E112020103F200000808080800000D7
:101B4000001F222222221300008080F0888888183B
:101B50000020203F20200000000080808080800046
:101B6000006B94949493600008F8008080800000DB
:101B7000203F210000203F200080989800000000B6
:101B80000020203F202000000000008098980000E6
:101B900000C08080807F000008F800008080800006
:101BA000203F24022D302000000808F8000000002B
:101BB0000020203F202000008080808080808000E6
:101BC000203F20003F20003F808000808080000078
:101BD000203F210000203F20000080808080000006
:101BE000001F202020201F00808000808000000037
:101BF00080FFA12020110E00000000808080800066
:101C0000000E112020A0FF80808080008080800056
:101C100020203F2120000100000080808080800083
:101C20000033242424241900008080E080800000F8
:101C30000000001F20200000808000000080800045
:101C4000001F202020103F208080800000808080A6
:101C500000010E3008060100808000800080808036
:101C60000F300C030C300F0000808000808080005B
:101C70000020312E0E312000808080000080808086
:101C800080818E7018060100008080808080800036
:101C90000021302C2221300000000000807C020254
:101CA00000000000003F404000000000FF00000076
:101CB00000000000FF0000000002027C8000000025
:101CC0000040403F00000000000601010202040441
:101CD0000000000000000000F81C000800000020C8
:101CE0004C00000028010008441D00084C000020A2
:101CF000340700004401000800A24A04000000006C
:101D000000000000010203040607080900000000AB
:101D100000000000000000000000000000000000C3
:101D200000000000000000000000000000000000B3
:101D3000000001020304010203040607080902046B
:041D40000608000091
:04000005080000ED02
:00000001FF
